{"abi":[{"type":"constructor","inputs":[],"stateMutability":"nonpayable"},{"type":"function","name":"_addBalance","inputs":[{"name":"user","type":"address","internalType":"address"},{"name":"token","type":"address","internalType":"address"},{"name":"quantity","type":"uint256","internalType":"uint256"}],"outputs":[],"stateMutability":"nonpayable"},{"type":"function","name":"bytes32ToStr","inputs":[{"name":"data","type":"bytes32","internalType":"bytes32"}],"outputs":[{"name":"","type":"string","internalType":"string"}],"stateMutability":"pure"},{"type":"function","name":"dispersePay","inputs":[{"name":"from","type":"address","internalType":"address"},{"name":"toData","type":"tuple[]","internalType":"struct EvvmMock.SplitPayMetadata[]","components":[{"name":"amount","type":"uint256","internalType":"uint256"},{"name":"to_address","type":"address","internalType":"address"},{"name":"to_username","type":"string","internalType":"string"}]},{"name":"token","type":"address","internalType":"address"},{"name":"amount","type":"uint256","internalType":"uint256"},{"name":"priorityFee","type":"uint256","internalType":"uint256"},{"name":"priority","type":"bool","internalType":"bool"},{"name":"nonce","type":"uint256","internalType":"uint256"},{"name":"executor","type":"address","internalType":"address"},{"name":"signature","type":"bytes","internalType":"bytes"}],"outputs":[],"stateMutability":"nonpayable"},{"type":"function","name":"fisherWithdrawal","inputs":[{"name":"user","type":"address","internalType":"address"},{"name":"addressToReceive","type":"address","internalType":"address"},{"name":"token","type":"address","internalType":"address"},{"name":"priorityFee","type":"uint256","internalType":"uint256"},{"name":"amount","type":"uint256","internalType":"uint256"},{"name":"signature","type":"bytes","internalType":"bytes"}],"outputs":[],"stateMutability":"nonpayable"},{"type":"function","name":"getIfUsedAsyncNonce","inputs":[{"name":"user","type":"address","internalType":"address"},{"name":"nonce","type":"uint256","internalType":"uint256"}],"outputs":[{"name":"","type":"bool","internalType":"bool"}],"stateMutability":"view"},{"type":"function","name":"getNextCurrentSyncNonce","inputs":[{"name":"user","type":"address","internalType":"address"}],"outputs":[{"name":"","type":"uint256","internalType":"uint256"}],"stateMutability":"view"},{"type":"function","name":"getNextFisherWithdrawalNonce","inputs":[{"name":"user","type":"address","internalType":"address"}],"outputs":[{"name":"","type":"uint256","internalType":"uint256"}],"stateMutability":"view"},{"type":"function","name":"payAsync","inputs":[{"name":"from","type":"address","internalType":"address"},{"name":"to_address","type":"address","internalType":"address"},{"name":"to_identity","type":"string","internalType":"string"},{"name":"token","type":"address","internalType":"address"},{"name":"amount","type":"uint256","internalType":"uint256"},{"name":"priorityFee","type":"uint256","internalType":"uint256"},{"name":"nonce","type":"uint256","internalType":"uint256"},{"name":"executor","type":"address","internalType":"address"},{"name":"signature","type":"bytes","internalType":"bytes"}],"outputs":[],"stateMutability":"nonpayable"},{"type":"function","name":"payMultiple","inputs":[{"name":"payData","type":"tuple[]","internalType":"struct EvvmMock.PayData[]","components":[{"name":"from","type":"address","internalType":"address"},{"name":"to_address","type":"address","internalType":"address"},{"name":"to_identity","type":"string","internalType":"string"},{"name":"token","type":"address","internalType":"address"},{"name":"amount","type":"uint256","internalType":"uint256"},{"name":"priorityFee","type":"uint256","internalType":"uint256"},{"name":"nonce","type":"uint256","internalType":"uint256"},{"name":"priority","type":"bool","internalType":"bool"},{"name":"executor","type":"address","internalType":"address"},{"name":"signature","type":"bytes","internalType":"bytes"}]}],"outputs":[{"name":"successfulTransactions","type":"uint256","internalType":"uint256"},{"name":"failedTransactions","type":"uint256","internalType":"uint256"},{"name":"signaturesFailed","type":"bytes[]","internalType":"bytes[]"}],"stateMutability":"nonpayable"},{"type":"function","name":"paySync","inputs":[{"name":"from","type":"address","internalType":"address"},{"name":"to_address","type":"address","internalType":"address"},{"name":"to_identity","type":"string","internalType":"string"},{"name":"token","type":"address","internalType":"address"},{"name":"amount","type":"uint256","internalType":"uint256"},{"name":"priorityFee","type":"uint256","internalType":"uint256"},{"name":"executor","type":"address","internalType":"address"},{"name":"signature","type":"bytes","internalType":"bytes"}],"outputs":[],"stateMutability":"nonpayable"},{"type":"function","name":"seeBalance","inputs":[{"name":"user","type":"address","internalType":"address"},{"name":"token","type":"address","internalType":"address"}],"outputs":[{"name":"","type":"uint256","internalType":"uint256"}],"stateMutability":"view"},{"type":"function","name":"seeMateReward","inputs":[],"outputs":[{"name":"","type":"uint256","internalType":"uint256"}],"stateMutability":"view"},{"type":"function","name":"verifyMessageSignedForDispersePay","inputs":[{"name":"signer","type":"address","internalType":"address"},{"name":"hashList","type":"bytes32","internalType":"bytes32"},{"name":"_token","type":"address","internalType":"address"},{"name":"_amount","type":"uint256","internalType":"uint256"},{"name":"_priorityFee","type":"uint256","internalType":"uint256"},{"name":"_nonce","type":"uint256","internalType":"uint256"},{"name":"_priority_boolean","type":"bool","internalType":"bool"},{"name":"_executor","type":"address","internalType":"address"},{"name":"signature","type":"bytes","internalType":"bytes"}],"outputs":[{"name":"","type":"bool","internalType":"bool"}],"stateMutability":"pure"},{"type":"function","name":"verifyMessageSignedForFisherBridge","inputs":[{"name":"signer","type":"address","internalType":"address"},{"name":"addressToReceive","type":"address","internalType":"address"},{"name":"_nonce","type":"uint256","internalType":"uint256"},{"name":"tokenAddress","type":"address","internalType":"address"},{"name":"_priorityFee","type":"uint256","internalType":"uint256"},{"name":"_amount","type":"uint256","internalType":"uint256"},{"name":"signature","type":"bytes","internalType":"bytes"}],"outputs":[{"name":"","type":"bool","internalType":"bool"}],"stateMutability":"pure"},{"type":"function","name":"verifyMessageSignedForPay","inputs":[{"name":"signer","type":"address","internalType":"address"},{"name":"_receiverAddress","type":"address","internalType":"address"},{"name":"_receiverIdentity","type":"string","internalType":"string"},{"name":"_token","type":"address","internalType":"address"},{"name":"_amount","type":"uint256","internalType":"uint256"},{"name":"_priorityFee","type":"uint256","internalType":"uint256"},{"name":"_nonce","type":"uint256","internalType":"uint256"},{"name":"_priority_boolean","type":"bool","internalType":"bool"},{"name":"_executor","type":"address","internalType":"address"},{"name":"signature","type":"bytes","internalType":"bytes"}],"outputs":[{"name":"","type":"bool","internalType":"bool"}],"stateMutability":"pure"},{"type":"function","name":"verifyMessageSignedForWithdrawal","inputs":[{"name":"signer","type":"address","internalType":"address"},{"name":"addressToReceive","type":"address","internalType":"address"},{"name":"_token","type":"address","internalType":"address"},{"name":"_amount","type":"uint256","internalType":"uint256"},{"name":"_priorityFee","type":"uint256","internalType":"uint256"},{"name":"_nonce","type":"uint256","internalType":"uint256"},{"name":"_priority_boolean","type":"bool","internalType":"bool"},{"name":"signature","type":"bytes","internalType":"bytes"}],"outputs":[{"name":"","type":"bool","internalType":"bool"}],"stateMutability":"pure"},{"type":"function","name":"withdrawalAsync","inputs":[{"name":"user","type":"address","internalType":"address"},{"name":"addressToReceive","type":"address","internalType":"address"},{"name":"token","type":"address","internalType":"address"},{"name":"amount","type":"uint256","internalType":"uint256"},{"name":"priorityFee","type":"uint256","internalType":"uint256"},{"name":"nonce","type":"uint256","internalType":"uint256"},{"name":"signature","type":"bytes","internalType":"bytes"},{"name":"_solutionId","type":"uint8","internalType":"uint8"},{"name":"_options","type":"bytes","internalType":"bytes"}],"outputs":[],"stateMutability":"payable"},{"type":"function","name":"withdrawalSync","inputs":[{"name":"user","type":"address","internalType":"address"},{"name":"addressToReceive","type":"address","internalType":"address"},{"name":"token","type":"address","internalType":"address"},{"name":"amount","type":"uint256","internalType":"uint256"},{"name":"priorityFee","type":"uint256","internalType":"uint256"},{"name":"signature","type":"bytes","internalType":"bytes"},{"name":"_solutionId","type":"uint8","internalType":"uint8"},{"name":"_options","type":"bytes","internalType":"bytes"}],"outputs":[],"stateMutability":"payable"},{"type":"error","name":"InvalidAmount","inputs":[]},{"type":"error","name":"InvalidAsyncNonce","inputs":[]},{"type":"error","name":"InvalidSignature","inputs":[]},{"type":"error","name":"NotAuthorizedOnExecutor","inputs":[]}],"bytecode":{"object":"0x608034620002cd5760c08101906001600160401b03821181831017620002b75760409182526b0691ef14d9ee1d2ee43400008082526b0348f78a6cf70e97721a00006020808401829052674563918244f4000084860181905260016060860181905260808601819052600260a0909601869052600094855592835584556003829055600480546001600160a01b031990811684178255600580549091169095179094558280527fcb8911fb82c2d10f6cf1d31d1e521ad3f4e3f42615f6ba67c454a9a2fdb9b6a781527fa698461bc2868b9cffabcb1dce39a63fe9c0c87b009e07d2ad05e2b3cd6bb5b1805473f39fd6e51aad88f6f4ce6ab8827279cfffb922669360099268056bc75e2d631000009283810191908210620002a4575586548587528385528887206001600160a01b03918216885285528887208054919691848101919082106200027e575585600554168188528486528988209088528552888720805490600282018092116200027e575586528284528786209473a0b86991c6218b36c1d19d4a2e9eb0ce3606eb4895868852855288872080549063041cdb4082018092116200027e57557370997970c51812dc3a010c7d01b50e0d17dc79c8928388528486528988208880528652898820805490828201809211620002915755818954168489528587528a8920908952865289882080549182018092116200027e575560055416828752838552888720908752845287862080549182018092116200026b57558452815284832091835252828120908154926298968084018094116200025857505055516125379081620002d38239f35b634e487b7160e01b825260119052602490fd5b634e487b7160e01b875260118852602487fd5b634e487b7160e01b895260118a52602489fd5b634e487b7160e01b8a5260118b5260248afd5b634e487b7160e01b885260118952602488fd5b634e487b7160e01b600052604160045260246000fd5b600080fdfe6080604052600436101561001257600080fd5b60003560e01c80630e960f63146101375780631820170c14610132578063245676e81461012d57806337da4ad8146101285780633feb36cf146101235780636cd301481461011e578063861cd16d146101195780638e0069811461011457806399358bd81461010f5780639a1f2e161461010a578063a4cba4ba14610105578063adc525c714610100578063c8a411c7146100fb578063d0e3692d146100f6578063d341a76f146100f1578063dd0aacf8146100ec578063ef0b2368146100e75763f27f71db146100e257600080fd5b610eae565b610e7b565b610e0b565b610ce0565b610c93565b610c09565b610a9c565b610a62565b610a0a565b610967565b6107ee565b61067c565b610642565b6105bf565b610574565b610508565b610473565b6102ce565b600435906001600160a01b038216820361015257565b600080fd5b602435906001600160a01b038216820361015257565b606435906001600160a01b038216820361015257565b60e435906001600160a01b038216820361015257565b604435906001600160a01b038216820361015257565b61010435906001600160a01b038216820361015257565b35906001600160a01b038216820361015257565b634e487b7160e01b600052604160045260246000fd5b606081019081106001600160401b0382111761020b57604052565b6101da565b604081019081106001600160401b0382111761020b57604052565b90601f801991011681019081106001600160401b0382111761020b57604052565b6040519061014082018281106001600160401b0382111761020b57604052565b6001600160401b03811161020b57601f01601f191660200190565b81601f820112156101525780359061029e8261026c565b926102ac604051948561022b565b8284526020838301011161015257816000926020809301838601378301015290565b3461015257610120366003190112610152576102e861013c565b6102f0610157565b6001600160401b03919060443583811161015257610312903690600401610287565b9061031b61016d565b936084359260a43560c4359661032f610183565b610104359485116101525761034b6103b2953690600401610287565b6001600160a01b0397889791959180891661044757506103aa9461038861038261037c61037661170b565b97611f5f565b9361207b565b9161207b565b916103928d61207b565b936103a461039e611750565b96611f5f565b96611770565b8051906121bf565b169082169081036104355760005260076020526040600020826000526020526103e1604060002060ff90541690565b610423576001600160a01b0316600090815260076020526040902061042191610414915b90600052602052604060002090565b805460ff19166001179055565b005b604051631849850b60e01b8152600490fd5b604051638baa579f60e01b8152600490fd5b93915061046e9461038861038261037c61046861046261170b565b98611f5f565b95611f5f565b6103aa565b346101525760c03660031901126101525761048c61013c565b610494610157565b61049c610199565b9160a435906001600160401b038211610152576104c06104e9923690600401610287565b9060018060a01b038116936000958587526008602052608435926064359260408920549161101e565b156104355781526008602052604081206105038154610ff8565b905580f35b346101525760e03660031901126101525761052161013c565b610529610157565b9061053261016d565b60c435916001600160401b0383116101525760209361055861056a943690600401610287565b9260a43592608435926044359161101e565b6040519015158152f35b34610152576000366003190112610152576020600254604051908152f35b9181601f84011215610152578235916001600160401b038311610152576020838186019501011161015257565b610120366003190112610152576105d461013c565b6105dc610157565b906105e5610199565b6001600160401b039260c43584811161015257610606903690600401610287565b9260e43560ff81160361015257610104359485116101525761062f610421953690600401610592565b505060a435926084359260643592611104565b34610152576020366003190112610152576001600160a01b0361066361013c565b1660005260066020526020604060002054604051908152f35b34610152576060366003190112610152576106cd61069861013c565b6106a0610157565b9060018060a01b0316600052600960205260406000209060018060a01b0316600052602052604060002090565b80549060443582018092116106df5755005b610fe2565b6001600160401b03811161020b5760051b60200190565b60e43590811515820361015257565b60c43590811515820361015257565b60a43590811515820361015257565b3590811515820361015257565b60005b8381106107485750506000910152565b8181015183820152602001610738565b9060209161077181518092818552858086019101610735565b601f01601f1916010190565b916060830191835260209060208401526060604084015283518092526080830192602060808460051b8301019501936000915b8483106107c05750505050505090565b90919293949584806107de600193607f198682030187528a51610758565b98019301930191949392906107b0565b3461015257602080600319360112610152576001600160401b03906004358281116101525736602382011215610152576024600482013561082e816106e4565b9460409061083f604051978861022b565b8287526024602088019360051b860101943686116101525760248101935b8685106108835761087f6108708a6112bc565b6040939193519384938461077d565b0390f35b84358381116101525782016101406023198236030112610152576108a561024c565b916108b18883016101c6565b83526108bf604483016101c6565b8a8401526064820135858111610152576108de90893691850101610287565b868401526108ee608483016101c6565b606084015260a4820135608084015260c482013560a084015260e482013560c084015261091e6101048301610728565b60e084015261093061012483016101c6565b61010084015261014482013592858411610152576109568b94938a869536920101610287565b61012082015281520194019361085d565b34610152576101403660031901126101525761098161013c565b610989610157565b6001600160401b0390604435828111610152576109aa903690600401610287565b906109b361016d565b916109bc6106fb565b906109c56101af565b92610124359586116101525761087f966109e66109f8973690600401610287565b9560c4359360a435936084359361185a565b60405190151581529081906020820190565b34610152576040366003190112610152576020610a59610a2861013c565b610a30610157565b6001600160a01b0391821660009081526009855260408082209290931681526020919091522090565b54604051908152f35b34610152576020366003190112610152576001600160a01b03610a8361013c565b1660005260086020526020604060002054604051908152f35b61010036600319011261015257610ab161013c565b610ab9610157565b90610ac2610199565b6001600160401b0360a43581811161015257610ae2903690600401610287565b9060c43560ff8116036101525760e43590811161015257610b07903690600401610592565b5050610b9260018060a01b039182610b8c818716926103aa600099858b52600660205260408b2054610b5960405192610b3f84610210565b60088452671a991c1c9b3098b360c11b6020850152611f5f565b90610b638b611f5f565b610b6e60643561207b565b90610b7d61037c60843561207b565b93610b8661172f565b956119ec565b16141590565b61043557600454610bb3906001600160a01b03165b6001600160a01b031690565b9116908114908115610bea575b50610be6576001600160a01b031660009081526006602052604090206105038154610ff8565b5080fd5b600554909150610c02906001600160a01b0316610ba7565b1438610bc0565b346101525761010036600319011261015257610c2361013c565b610c2b610157565b6001600160401b039160443583811161015257610c4c903690600401610287565b91610c5561016d565b60c43592906001600160a01b03841684036101525760e43595861161015257610c85610421963690600401610287565b9460a4359360843593611937565b34610152576040366003190112610152576001600160a01b03610cb461013c565b1660005260076020526040600020602435600052602052602060ff604060002054166040519015158152f35b346101525761010036600319011261015257610cfa61013c565b610d02610157565b90610d0b610199565b610d1361070a565b9260e435906001600160401b0382116101525761087f94610d3b610da6933690600401610287565b938115610dde57610d75610d6f604051610d5481610210565b60088152671c99183319b21b9b60c11b602082015294611f5f565b91611f5f565b610d8060643561207b565b90610d8c60843561207b565b92610d9860a43561207b565b9415610dd657610b86611750565b80516001600160a01b03928392610dbd92906121bf565b1691161460405191829182919091602081019215159052565b610b8661172f565b610d75610d6f604051610df081610210565b60088152671a991c1c9b3098b360c11b602082015294611f5f565b346101525761012036600319011261015257610e2561013c565b610e2d610199565b610e3561070a565b90610e3e610183565b61010435926001600160401b03841161015257602094610e6561056a953690600401610287565b9360a43591608435916064359160243590611a89565b346101525760203660031901126101525761087f610e9a600435611bc9565b604051918291602083526020830190610758565b346101525761012036600319011261015257610ec861013c565b6001600160401b039060248035838111610152573660238201121561015257806004013590610ef6826106e4565b92604092610f07604051958661022b565b8085526020936024602087019260051b850101933685116101525760248101925b858410610f7957898989610f3a610199565b610f42610719565b610f4a610183565b926101043595861161015257610f67610421963690600401610287565b9460c435936084359260643592611cc0565b83358a81116101525782016060602319823603011261015257835191610f9e836101f0565b868201358352610fb0604483016101c6565b898401526064820135928c841161015257610fd38a949389869536920101610287565b86820152815201930192610f28565b634e487b7160e01b600052601160045260246000fd5b60001981146106df5760010190565b9061101a60209282815194859201610735565b0190565b9592610ba7946110f596936024926110e661105f61105961105361104d6110476103aa9a611f5f565b9661207b565b94611f5f565b9561207b565b9761207b565b9260405197889560209261107b8151809286808c019101610735565b870194600b60fa1b95868582015261109c8251809387602185019101610735565b018560218201526110b68251809386602285019101610735565b018460228201526110d08251809385602385019101610735565b0192602384015283519384918785019101610735565b0103600481018452018261022b565b6001600160a01b039091161490565b9495929361115a92946111376040519361111d85610210565b60088552671c99183319b21b9b60c11b6020860152611f5f565b9161114761038261037c89611f5f565b916111518a61207b565b93610b86611750565b80516001600160a01b0392839261117192906121bf565b16818416036104355760045481166001600160a01b031691169081149081156111f7575b5080156111c7575b610152576001600160a01b031660009081526007602052604090206111c59161041491610405565b565b506111f26111eb836104058460018060a01b03166000526007602052604060002090565b5460ff1690565b61119d565b60055490915061120f906001600160a01b0316610ba7565b1438611195565b90600c82018092116106df57565b60020190816002116106df57565b60030190816003116106df57565b907f060606060606060606060606060606060606060606060606060606060606060682018092116106df57565b919082018092116106df57565b634e487b7160e01b600052603260045260246000fd5b6060518110156112a35760051b60800190565b61127a565b80518210156112a35760209160051b010190565b9060008060608181815b87518610156116de5760e06112e7816112df898c6112a8565b510151151590565b156115f9576112f6878a6112a8565b51516001600160a01b031661130b888b6112a8565b51602001516001600160a01b0316888b61132582826112a8565b51604001518961133584846112a8565b5101516001600160a01b031661134b84846112a8565b516080015161135a85856112a8565b5160a001519161136a86866112a8565b5160c00151938961137b88886112a8565b51015115159561138b88826112a8565b5161010001516001600160a01b0316976113a4916112a8565b516101200151976113b49961185a565b156115f5575b6101006113dd610ba7826113ce8b8e6112a8565b5101516001600160a01b031690565b6115c2575b506113f1906112df888b6112a8565b156115625761142e611414611406888b6112a8565b51516001600160a01b031690565b6001600160a01b0316600090815260076020526040902090565b8861145b6114576111eb60c094856114468d876112a8565b510151600052602052604060002090565b1590565b1561154b57611482916114776114146114068b610414956112a8565b906114468a8d6112a8565b6114d36114af611495611406898c6112a8565b6001600160a01b0316600090815260096020526040902090565b6114bd866113ce8a8d6112a8565b60018060a01b0316600052602052604060002090565b546114fb60806114e3898c6112a8565b51015160a06114f28a8d6112a8565b5101519061126d565b116115145761150b600191610ff8565b955b01946112c6565b9493611545600191610120611529888c6112a8565b51015161153582611290565b5261153f81611290565b50610ff8565b9461150d565b611545915095610120611529896001959a996112a8565b61158c611572611406888b6112a8565b6001600160a01b0316600090815260066020526040902090565b5460c0611599888b6112a8565b51015103611514576115b1611572611406888b6112a8565b6115bb8154610ff8565b9055611482565b610ba76115d3916113ce8a8d6112a8565b33036115df57386113e2565b509493611545600191610120611529888c6112a8565b8380fd5b611603878a6112a8565b51516001600160a01b0316611618888b6112a8565b51602001516001600160a01b0316888b61163282826112a8565b51604001518961164284846112a8565b5101516001600160a01b031661165884846112a8565b516080015161166785856112a8565b5160a001519161167786866112a8565b51516001600160a01b0316600090815260066020526040902054938961169d88886112a8565b5101511515956116ad88826112a8565b5161010001516001600160a01b0316976116c6916112a8565b516101200151976116d69961185a565b6113ba578380fd5b96509350505091565b604051906116f482610210565b60088252671a3330b098b3309960c11b6020830152565b6040519061171882610210565b6008825267331a32989c1c9ab160c11b6020830152565b6040519061173c82610210565b600582526466616c736560d81b6020830152565b6040519061175d82610210565b60048252637472756560e01b6020830152565b909796949297959391956040519889976020938051908186808d0192019161179792610735565b890192600b60fa1b9384868201528151918287602184019201916117ba92610735565b018360218201528151918286602284019201916117d692610735565b0191602283015280518093602384019201916117f192610735565b016023810161180390600b60fa1b9052565b60240161180f91611007565b600b60fa1b815260010161182291611007565b600b60fa1b815260010161183591611007565b600b60fa1b815260010161184891611007565b03601f19810183526111c5908361022b565b986001600160a01b03986118bc98610ba7989297939691949093919060008c89166118e157506103aa975084156118cd576118ab6118a56118a56118a561189f61170b565b9a611f5f565b9461207b565b94156118c2576103a461039e611750565b91161490565b6103a461039e61172f565b6118ab6118a56118a56118a561189f6116e7565b9461046e98979150806000146119205761190e61105361105361105361046861190861170b565b9c611f5f565b9550156118c2576103a461039e611750565b61190e6110536110536110536104686119086116e7565b9496939095919560018060a01b03809616976000928984526006602052604084205492888116156000146119ba57509161199a969593916103aa959361198d61037c61037c61037c6119876116e7565b99611f5f565b939a6103a461039e61172f565b1682036104355760409181526006602052206119b68154610ff8565b9055565b9398509161199a96959161046e95936119e061037c61037c61037c61037661189f6116e7565b936103a461039e61172f565b90969593919492966040519788966020938051908186808c01920191611a1192610735565b880192600b60fa1b938486820152815191828760218401920191611a3492610735565b01836021820152815191828660228401920191611a5092610735565b019160228301528051809360238401920191611a6b92610735565b0160238101611a7d90600b60fa1b9052565b60240161182291611007565b9795919692949061038261105361105961189f611aa594611bc9565b9115611bbe57611abc611ab6611750565b93611f5f565b93604051978896602088016733191bb31b98b23160c11b9052600b60fa1b918260288a01528051908160298b019160200191611af792610735565b880182602982015281519182602a83019160200191611b1592610735565b0190602a82015281519182602b83019160200191611b3292610735565b01602b8101611b4490600b60fa1b9052565b602c01611b5091611007565b600b60fa1b8152600101611b6391611007565b600b60fa1b8152600101611b7691611007565b600b60fa1b8152600101611b8991611007565b03601f1981018352611b9b908361022b565b8151611ba6926121bf565b6001600160a01b03166001600160a01b039091161490565b611abc611ab661172f565b611bf36fffffffffffffffffffffffffffffffff19611be983821661231f565b9260801b1661231f565b6040519161060f60f31b60208401526022830152604282015260428152608081018181106001600160401b0382111761020b5760405290565b6020808201908083528351809252604092604081018260408560051b8401019601946000925b858410611c63575050505050505090565b909192939495968580611ca3600193603f198682030188528b518760609180518452878060a01b0386820151168685015201519181898201520190610758565b990194019401929594939190611c52565b6040513d6000823e3d90fd5b959296919094989360409860206000611cfd8c51611cf281611ce48d878301611c2c565b03601f19810183528261022b565b8d5191828092611007565b039060025afa15611eb957838b89611457948c611d269760005185600014611e9a578b94611a89565b611e895787906001600160a01b031680611e69575b50611e30575b600093845b8451861015611d8757611d6590611d5d87876112a8565b51519061126d565b94868611611d765760010194611d46565b875163162908e360e11b8152600490fd5b50945094509491505080600014611e0757611dbb610414846104058560018060a01b03166000526007602052604060002090565b15611de4576001600160a01b031660009081526007602052604090206111c59161041491610405565b6001600160a01b0316600090815260066020526040902090506119b68154610ff8565b6001600160a01b0382166000908152600660205260409020611e298154610ff8565b9055611dbb565b611e536111eb826104058760018060a01b03166000526007602052604060002090565b15611d41578551631849850b60e01b8152600490fd5b90503303611e78578638611d3b565b85516370138bef60e01b8152600490fd5b8651638baa579f60e01b8152600490fd5b6001600160a01b03851660009081526006602052604090205494611a89565b611cb4565b60405190611ecb82610210565b601082526f181899199a1a9b1b9c1cb0b131b232b360811b6020830152565b60405190611ef7826101f0565b602a82526040366020840137565b8051156112a35760200190565b8051600110156112a35760210190565b9081518110156112a3570160200190565b908160011b91808304600214901517156106df57565b906007820291808304600714901517156106df57565b6001600160a01b0316611f70611ebe565b611f78611eea565b916030611f8484611f05565b536078611f9084611f12565b5360009060005b60148110611fa6575050505090565b611faf81611216565b90602091828110156112a357611fe1611fd38592600f9384911a60041c1688611f22565b516001600160f81b03191690565b611fff611ff5611ff085611f33565b611224565b91871a9189611f22565b5361200982611216565b928310156112a357611fd361202491856001951a1687611f22565b61204261203861203384611f33565b611232565b91861a9188611f22565b5301611f97565b906120538261026c565b612060604051918261022b565b8281528092612071601f199161026c565b0190602036910137565b806000917a184f03e93ff9f4daa797ed6e38ed64bf6a1f010000000000000000808210156121b1575b506d04ee2d6d415b85acef8100000000808310156121a2575b50662386f26fc1000080831015612193575b506305f5e10080831015612184575b5061271080831015612175575b506064821015612165575b600a8092101561215b575b60019081602161211360018701612049565b95860101905b612125575b5050505090565b600019019083906f181899199a1a9b1b9c1cb0b131b232b360811b8282061a83530491821561215657919082612119565b61211e565b9160010191612101565b91906064600291049101916120f6565b600491939204910191386120eb565b600891939204910191386120de565b601091939204910191386120cf565b602091939204910191386120bd565b6040935081049150386120a4565b91906121ca9061207b565b604051612232603a82602096878201957f19457468657265756d205369676e6564204d6573736167653a0a000000000000875261220f815180928b8787019101610735565b8201612223825180938b8785019101610735565b0103601a81018452018261022b565b51902060009160418151036122da578381015160408201516060909201516000941a929190601b84106122c3575b906122a49161227e60ff8616601b81149081156122b8575b506124b5565b604051948594859094939260ff6060936080840197845216602083015260408201520152565b838052039060015afa15611eb95760005190565b601c91501438612278565b92906122d16122a4926124a3565b93909150612260565b60405162461bcd60e51b815260048101859052601860248201527f496e76616c6964207369676e6174757265206c656e67746800000000000000006044820152606490fd5b8060401c906bffffffff0000000000000000821663ffffffff60c01b82161760201c9163ffffffff60601b169063ffffffff60e01b1617178060101c907fff00000000000000ff00000000000000ff00000000000000ff000000000000007bff00000000000000ff00000000000000ff00000000000000ff0000007aff00000000000000ff00000000000000ff00000000000000ff000084167eff00000000000000ff00000000000000ff00000000000000ff00000000000084161760081c9316911617177f0f000f000f000f000f000f000f000f000f000f000f000f000f000f000f000f007e0f000f000f000f000f000f000f000f000f000f000f000f000f000f000f000f8260081c169160041c16177f30303030303030303030303030303030303030303030303030303030303030308181018091116106df5761249a7f0f0f0f0f0f0f0f0f0f0f0f0f0f0f0f0f0f0f0f0f0f0f0f0f0f0f0f0f0f0f0f0f61249461248e6124a095611240565b60041c90565b16611f49565b9061126d565b90565b60ff601b9116019060ff82116106df57565b156124bc57565b60405162461bcd60e51b815260206004820152601760248201527f496e76616c6964207369676e61747572652076616c75650000000000000000006044820152606490fdfea2646970667358221220227fe4f5fc214a1c07117dd165f57181b9dd0dd404ad02a653aa32e2f9ddcebd64736f6c63430008180033","linkReferences":{}},"methodIdentifiers":{"_addBalance(address,address,uint256)":"861cd16d","bytes32ToStr(bytes32)":"ef0b2368","dispersePay(address,(uint256,address,string)[],address,uint256,uint256,bool,uint256,address,bytes)":"f27f71db","fisherWithdrawal(address,address,address,uint256,uint256,bytes)":"1820170c","getIfUsedAsyncNonce(address,uint256)":"d0e3692d","getNextCurrentSyncNonce(address)":"6cd30148","getNextFisherWithdrawalNonce(address)":"a4cba4ba","payAsync(address,address,string,address,uint256,uint256,uint256,address,bytes)":"0e960f63","payMultiple((address,address,string,address,uint256,uint256,uint256,bool,address,bytes)[])":"8e006981","paySync(address,address,string,address,uint256,uint256,address,bytes)":"c8a411c7","seeBalance(address,address)":"9a1f2e16","seeMateReward()":"37da4ad8","verifyMessageSignedForDispersePay(address,bytes32,address,uint256,uint256,uint256,bool,address,bytes)":"dd0aacf8","verifyMessageSignedForFisherBridge(address,address,uint256,address,uint256,uint256,bytes)":"245676e8","verifyMessageSignedForPay(address,address,string,address,uint256,uint256,uint256,bool,address,bytes)":"99358bd8","verifyMessageSignedForWithdrawal(address,address,address,uint256,uint256,uint256,bool,bytes)":"d341a76f","withdrawalAsync(address,address,address,uint256,uint256,uint256,bytes,uint8,bytes)":"3feb36cf","withdrawalSync(address,address,address,uint256,uint256,bytes,uint8,bytes)":"adc525c7"},"id":91}